{
  "_format": "hh-sol-artifact-1",
  "contractName": "CryptoPlanet",
  "sourceName": "contracts/CryptoPlanet.sol",
  "abi": [
    {
      "inputs": [],
      "stateMutability": "nonpayable",
      "type": "constructor"
    },
    {
      "anonymous": false,
      "inputs": [
        {
          "indexed": true,
          "internalType": "address",
          "name": "owner",
          "type": "address"
        },
        {
          "indexed": true,
          "internalType": "address",
          "name": "approved",
          "type": "address"
        },
        {
          "indexed": true,
          "internalType": "uint256",
          "name": "tokenId",
          "type": "uint256"
        }
      ],
      "name": "Approval",
      "type": "event"
    },
    {
      "anonymous": false,
      "inputs": [
        {
          "indexed": true,
          "internalType": "address",
          "name": "owner",
          "type": "address"
        },
        {
          "indexed": true,
          "internalType": "address",
          "name": "operator",
          "type": "address"
        },
        {
          "indexed": false,
          "internalType": "bool",
          "name": "approved",
          "type": "bool"
        }
      ],
      "name": "ApprovalForAll",
      "type": "event"
    },
    {
      "anonymous": false,
      "inputs": [
        {
          "indexed": false,
          "internalType": "address",
          "name": "sender",
          "type": "address"
        },
        {
          "indexed": false,
          "internalType": "uint256",
          "name": "tokenId",
          "type": "uint256"
        }
      ],
      "name": "CryptoPlanetMinted",
      "type": "event"
    },
    {
      "anonymous": false,
      "inputs": [
        {
          "indexed": true,
          "internalType": "address",
          "name": "from",
          "type": "address"
        },
        {
          "indexed": true,
          "internalType": "address",
          "name": "to",
          "type": "address"
        },
        {
          "indexed": true,
          "internalType": "uint256",
          "name": "tokenId",
          "type": "uint256"
        }
      ],
      "name": "Transfer",
      "type": "event"
    },
    {
      "inputs": [
        {
          "internalType": "address",
          "name": "to",
          "type": "address"
        },
        {
          "internalType": "uint256",
          "name": "tokenId",
          "type": "uint256"
        }
      ],
      "name": "approve",
      "outputs": [],
      "stateMutability": "nonpayable",
      "type": "function"
    },
    {
      "inputs": [
        {
          "internalType": "address",
          "name": "owner",
          "type": "address"
        }
      ],
      "name": "balanceOf",
      "outputs": [
        {
          "internalType": "uint256",
          "name": "",
          "type": "uint256"
        }
      ],
      "stateMutability": "view",
      "type": "function"
    },
    {
      "inputs": [
        {
          "internalType": "uint256",
          "name": "tokenId",
          "type": "uint256"
        }
      ],
      "name": "getApproved",
      "outputs": [
        {
          "internalType": "address",
          "name": "",
          "type": "address"
        }
      ],
      "stateMutability": "view",
      "type": "function"
    },
    {
      "inputs": [
        {
          "internalType": "address",
          "name": "owner",
          "type": "address"
        },
        {
          "internalType": "address",
          "name": "operator",
          "type": "address"
        }
      ],
      "name": "isApprovedForAll",
      "outputs": [
        {
          "internalType": "bool",
          "name": "",
          "type": "bool"
        }
      ],
      "stateMutability": "view",
      "type": "function"
    },
    {
      "inputs": [],
      "name": "makeCryptoPlanet",
      "outputs": [],
      "stateMutability": "nonpayable",
      "type": "function"
    },
    {
      "inputs": [],
      "name": "name",
      "outputs": [
        {
          "internalType": "string",
          "name": "",
          "type": "string"
        }
      ],
      "stateMutability": "view",
      "type": "function"
    },
    {
      "inputs": [
        {
          "internalType": "uint256",
          "name": "tokenId",
          "type": "uint256"
        }
      ],
      "name": "ownerOf",
      "outputs": [
        {
          "internalType": "address",
          "name": "",
          "type": "address"
        }
      ],
      "stateMutability": "view",
      "type": "function"
    },
    {
      "inputs": [
        {
          "internalType": "uint256",
          "name": "tokenId",
          "type": "uint256"
        }
      ],
      "name": "pickRandomFirstWord",
      "outputs": [
        {
          "internalType": "string",
          "name": "",
          "type": "string"
        }
      ],
      "stateMutability": "view",
      "type": "function"
    },
    {
      "inputs": [
        {
          "internalType": "uint256",
          "name": "tokenId",
          "type": "uint256"
        }
      ],
      "name": "pickRandomSecondWord",
      "outputs": [
        {
          "internalType": "string",
          "name": "",
          "type": "string"
        }
      ],
      "stateMutability": "view",
      "type": "function"
    },
    {
      "inputs": [
        {
          "internalType": "uint256",
          "name": "tokenId",
          "type": "uint256"
        }
      ],
      "name": "pickRandomThirdWord",
      "outputs": [
        {
          "internalType": "string",
          "name": "",
          "type": "string"
        }
      ],
      "stateMutability": "view",
      "type": "function"
    },
    {
      "inputs": [
        {
          "internalType": "address",
          "name": "from",
          "type": "address"
        },
        {
          "internalType": "address",
          "name": "to",
          "type": "address"
        },
        {
          "internalType": "uint256",
          "name": "tokenId",
          "type": "uint256"
        }
      ],
      "name": "safeTransferFrom",
      "outputs": [],
      "stateMutability": "nonpayable",
      "type": "function"
    },
    {
      "inputs": [
        {
          "internalType": "address",
          "name": "from",
          "type": "address"
        },
        {
          "internalType": "address",
          "name": "to",
          "type": "address"
        },
        {
          "internalType": "uint256",
          "name": "tokenId",
          "type": "uint256"
        },
        {
          "internalType": "bytes",
          "name": "_data",
          "type": "bytes"
        }
      ],
      "name": "safeTransferFrom",
      "outputs": [],
      "stateMutability": "nonpayable",
      "type": "function"
    },
    {
      "inputs": [
        {
          "internalType": "address",
          "name": "operator",
          "type": "address"
        },
        {
          "internalType": "bool",
          "name": "approved",
          "type": "bool"
        }
      ],
      "name": "setApprovalForAll",
      "outputs": [],
      "stateMutability": "nonpayable",
      "type": "function"
    },
    {
      "inputs": [
        {
          "internalType": "bytes4",
          "name": "interfaceId",
          "type": "bytes4"
        }
      ],
      "name": "supportsInterface",
      "outputs": [
        {
          "internalType": "bool",
          "name": "",
          "type": "bool"
        }
      ],
      "stateMutability": "view",
      "type": "function"
    },
    {
      "inputs": [],
      "name": "symbol",
      "outputs": [
        {
          "internalType": "string",
          "name": "",
          "type": "string"
        }
      ],
      "stateMutability": "view",
      "type": "function"
    },
    {
      "inputs": [
        {
          "internalType": "uint256",
          "name": "tokenId",
          "type": "uint256"
        }
      ],
      "name": "tokenURI",
      "outputs": [
        {
          "internalType": "string",
          "name": "",
          "type": "string"
        }
      ],
      "stateMutability": "view",
      "type": "function"
    },
    {
      "inputs": [
        {
          "internalType": "address",
          "name": "from",
          "type": "address"
        },
        {
          "internalType": "address",
          "name": "to",
          "type": "address"
        },
        {
          "internalType": "uint256",
          "name": "tokenId",
          "type": "uint256"
        }
      ],
      "name": "transferFrom",
      "outputs": [],
      "stateMutability": "nonpayable",
      "type": "function"
    }
  ],
  "bytecode": "0x608060405260405180610160016040528061012f815260200162003fcb61012f9139600890805190602001906200003892919062000567565b506040518060c001604052806040518060400160405280600381526020017f455448000000000000000000000000000000000000000000000000000000000081525081526020016040518060400160405280600481526020017f446f67650000000000000000000000000000000000000000000000000000000081525081526020016040518060400160405280600381526020017f534f4c000000000000000000000000000000000000000000000000000000000081525081526020016040518060400160405280600481526020017f534849420000000000000000000000000000000000000000000000000000000081525081526020016040518060400160405280600381526020017f534e54000000000000000000000000000000000000000000000000000000000081525081526020016040518060400160405280600381526020017f44504900000000000000000000000000000000000000000000000000000000008152508152506009906006620001b6929190620005f8565b506040518060c001604052806040518060400160405280600581526020017f666c69707300000000000000000000000000000000000000000000000000000081525081526020016040518060400160405280600581526020017f666c69707300000000000000000000000000000000000000000000000000000081525081526020016040518060400160405280600581526020017f666c69707300000000000000000000000000000000000000000000000000000081525081526020016040518060400160405280600581526020017f666c69707300000000000000000000000000000000000000000000000000000081525081526020016040518060400160405280600581526020017f666c69707300000000000000000000000000000000000000000000000000000081525081526020016040518060400160405280600581526020017f666c697073000000000000000000000000000000000000000000000000000000815250815250600a90600662000334929190620005f8565b506040518060c001604052806040518060400160405280600381526020017f425443000000000000000000000000000000000000000000000000000000000081525081526020016040518060400160405280600381526020017f454f53000000000000000000000000000000000000000000000000000000000081525081526020016040518060400160405280600381526020017f4e454f000000000000000000000000000000000000000000000000000000000081525081526020016040518060400160405280600381526020017f584c50000000000000000000000000000000000000000000000000000000000081525081526020016040518060400160405280600381526020017f414441000000000000000000000000000000000000000000000000000000000081525081526020016040518060400160405280600481526020017f54524f4e00000000000000000000000000000000000000000000000000000000815250815250600b906006620004b2929190620005f8565b50348015620004c057600080fd5b506040518060400160405280600d81526020017f43727970746f506c616e657473000000000000000000000000000000000000008152506040518060400160405280600481526020017f504c4e540000000000000000000000000000000000000000000000000000000081525081600090805190602001906200054592919062000567565b5080600190805190602001906200055e92919062000567565b50505062000751565b8280546200057590620006ec565b90600052602060002090601f016020900481019282620005995760008555620005e5565b82601f10620005b457805160ff1916838001178555620005e5565b82800160010185558215620005e5579182015b82811115620005e4578251825591602001919060010190620005c7565b5b509050620005f491906200065f565b5090565b8280548282559060005260206000209081019282156200064c579160200282015b828111156200064b5782518290805190602001906200063a92919062000567565b509160200191906001019062000619565b5b5090506200065b91906200067e565b5090565b5b808211156200067a57600081600090555060010162000660565b5090565b5b80821115620006a25760008181620006989190620006a6565b506001016200067f565b5090565b508054620006b490620006ec565b6000825580601f10620006c85750620006e9565b601f016020900490600052602060002090810190620006e891906200065f565b5b50565b600060028204905060018216806200070557607f821691505b602082108114156200071c576200071b62000722565b5b50919050565b7f4e487b7100000000000000000000000000000000000000000000000000000000600052602260045260246000fd5b61386a80620007616000396000f3fe608060405234801561001057600080fd5b506004361061010b5760003560e01c80636487e96b116100a2578063b187301f11610071578063b187301f146102b6578063b88d4fde146102e6578063c575757a14610302578063c87b56dd14610332578063e985e9c5146103625761010b565b80636487e96b1461024257806370a082311461024c57806395d89b411461027c578063a22cb4651461029a5761010b565b806323b872dd116100de57806323b872dd146101aa5780632de38d68146101c657806342842e0e146101f65780636352211e146102125761010b565b806301ffc9a71461011057806306fdde0314610140578063081812fc1461015e578063095ea7b31461018e575b600080fd5b61012a6004803603810190610125919061239e565b610392565b6040516101379190612aa8565b60405180910390f35b610148610474565b6040516101559190612ac3565b60405180910390f35b610178600480360381019061017391906123f0565b610506565b6040516101859190612a18565b60405180910390f35b6101a860048036038101906101a39190612362565b61058b565b005b6101c460048036038101906101bf919061225c565b6106a3565b005b6101e060048036038101906101db91906123f0565b610703565b6040516101ed9190612ac3565b60405180910390f35b610210600480360381019061020b919061225c565b610821565b005b61022c600480360381019061022791906123f0565b610841565b6040516102399190612a18565b60405180910390f35b61024a6108f3565b005b610266600480360381019061026191906121f7565b610a55565b6040516102739190612d23565b60405180910390f35b610284610b0d565b6040516102919190612ac3565b60405180910390f35b6102b460048036038101906102af9190612326565b610b9f565b005b6102d060048036038101906102cb91906123f0565b610d20565b6040516102dd9190612ac3565b60405180910390f35b61030060048036038101906102fb91906122ab565b610e3e565b005b61031c600480360381019061031791906123f0565b610ea0565b6040516103299190612ac3565b60405180910390f35b61034c600480360381019061034791906123f0565b610fbe565b6040516103599190612ac3565b60405180910390f35b61037c60048036038101906103779190612220565b611110565b6040516103899190612aa8565b60405180910390f35b60007f80ac58cd000000000000000000000000000000000000000000000000000000007bffffffffffffffffffffffffffffffffffffffffffffffffffffffff1916827bffffffffffffffffffffffffffffffffffffffffffffffffffffffff1916148061045d57507f5b5e139f000000000000000000000000000000000000000000000000000000007bffffffffffffffffffffffffffffffffffffffffffffffffffffffff1916827bffffffffffffffffffffffffffffffffffffffffffffffffffffffff1916145b8061046d575061046c826111a4565b5b9050919050565b60606000805461048390612fb7565b80601f01602080910402602001604051908101604052809291908181526020018280546104af90612fb7565b80156104fc5780601f106104d1576101008083540402835291602001916104fc565b820191906000526020600020905b8154815290600101906020018083116104df57829003601f168201915b5050505050905090565b60006105118261120e565b610550576040517f08c379a000000000000000000000000000000000000000000000000000000000815260040161054790612c83565b60405180910390fd5b6004600083815260200190815260200160002060009054906101000a900473ffffffffffffffffffffffffffffffffffffffff169050919050565b600061059682610841565b90508073ffffffffffffffffffffffffffffffffffffffff168373ffffffffffffffffffffffffffffffffffffffff161415610607576040517f08c379a00000000000000000000000000000000000000000000000000000000081526004016105fe90612ce3565b60405180910390fd5b8073ffffffffffffffffffffffffffffffffffffffff1661062661127a565b73ffffffffffffffffffffffffffffffffffffffff16148061065557506106548161064f61127a565b611110565b5b610694576040517f08c379a000000000000000000000000000000000000000000000000000000000815260040161068b90612bc3565b60405180910390fd5b61069e8383611282565b505050565b6106b46106ae61127a565b8261133b565b6106f3576040517f08c379a00000000000000000000000000000000000000000000000000000000081526004016106ea90612d03565b60405180910390fd5b6106fe838383611419565b505050565b6060600061073761071384611675565b60405160200161072391906129d4565b604051602081830303815290604052611822565b90506009805490508161074a9190613063565b905060098181548110610786577f4e487b7100000000000000000000000000000000000000000000000000000000600052603260045260246000fd5b90600052602060002001805461079b90612fb7565b80601f01602080910402602001604051908101604052809291908181526020018280546107c790612fb7565b80156108145780601f106107e957610100808354040283529160200191610814565b820191906000526020600020905b8154815290600101906020018083116107f757829003601f168201915b5050505050915050919050565b61083c83838360405180602001604052806000815250610e3e565b505050565b6000806002600084815260200190815260200160002060009054906101000a900473ffffffffffffffffffffffffffffffffffffffff169050600073ffffffffffffffffffffffffffffffffffffffff168173ffffffffffffffffffffffffffffffffffffffff1614156108ea576040517f08c379a00000000000000000000000000000000000000000000000000000000081526004016108e190612c03565b60405180910390fd5b80915050919050565b60006108ff6007611855565b9050600061090c82610703565b9050600061091983610d20565b9050600061092684610ea0565b9050600083838360405160200161093f939291906128eb565b6040516020818303038152906040529050600060088260405160200161096692919061291c565b604051602081830303815290604052905060006109ab8361098684611863565b60405160200161099792919061298f565b604051602081830303815290604052611863565b90506000816040516020016109c091906129f6565b60405160208183030381529060405290506109db3389611a21565b6109e58882611a3f565b6109ef6007611ab3565b610a126040518060600160405280602581526020016137d0602591398933611ac9565b7fc446ad3e780f5e37f730a1fa435e2320cd9cc64c4672416d38618b12a3338f533389604051610a43929190612a7f565b60405180910390a15050505050505050565b60008073ffffffffffffffffffffffffffffffffffffffff168273ffffffffffffffffffffffffffffffffffffffff161415610ac6576040517f08c379a0000000000000000000000000000000000000000000000000000000008152600401610abd90612be3565b60405180910390fd5b600360008373ffffffffffffffffffffffffffffffffffffffff1673ffffffffffffffffffffffffffffffffffffffff168152602001908152602001600020549050919050565b606060018054610b1c90612fb7565b80601f0160208091040260200160405190810160405280929190818152602001828054610b4890612fb7565b8015610b955780601f10610b6a57610100808354040283529160200191610b95565b820191906000526020600020905b815481529060010190602001808311610b7857829003601f168201915b5050505050905090565b610ba761127a565b73ffffffffffffffffffffffffffffffffffffffff168273ffffffffffffffffffffffffffffffffffffffff161415610c15576040517f08c379a0000000000000000000000000000000000000000000000000000000008152600401610c0c90612b83565b60405180910390fd5b8060056000610c2261127a565b73ffffffffffffffffffffffffffffffffffffffff1673ffffffffffffffffffffffffffffffffffffffff16815260200190815260200160002060008473ffffffffffffffffffffffffffffffffffffffff1673ffffffffffffffffffffffffffffffffffffffff16815260200190815260200160002060006101000a81548160ff0219169083151502179055508173ffffffffffffffffffffffffffffffffffffffff16610ccf61127a565b73ffffffffffffffffffffffffffffffffffffffff167f17307eab39ab6107e8899845ad3d59bd9653f200f220920489ca2b5937696c3183604051610d149190612aa8565b60405180910390a35050565b60606000610d54610d3084611675565b604051602001610d40919061296d565b604051602081830303815290604052611822565b9050600a8054905081610d679190613063565b9050600a8181548110610da3577f4e487b7100000000000000000000000000000000000000000000000000000000600052603260045260246000fd5b906000526020600020018054610db890612fb7565b80601f0160208091040260200160405190810160405280929190818152602001828054610de490612fb7565b8015610e315780601f10610e0657610100808354040283529160200191610e31565b820191906000526020600020905b815481529060010190602001808311610e1457829003601f168201915b5050505050915050919050565b610e4f610e4961127a565b8361133b565b610e8e576040517f08c379a0000000000000000000000000000000000000000000000000000000008152600401610e8590612d03565b60405180910390fd5b610e9a84848484611b68565b50505050565b60606000610ed4610eb084611675565b604051602001610ec0919061294b565b604051602081830303815290604052611822565b9050600b8054905081610ee79190613063565b9050600b8181548110610f23577f4e487b7100000000000000000000000000000000000000000000000000000000600052603260045260246000fd5b906000526020600020018054610f3890612fb7565b80601f0160208091040260200160405190810160405280929190818152602001828054610f6490612fb7565b8015610fb15780601f10610f8657610100808354040283529160200191610fb1565b820191906000526020600020905b815481529060010190602001808311610f9457829003601f168201915b5050505050915050919050565b6060610fc98261120e565b611008576040517f08c379a0000000000000000000000000000000000000000000000000000000008152600401610fff90612c63565b60405180910390fd5b600060066000848152602001908152602001600020805461102890612fb7565b80601f016020809104026020016040519081016040528092919081815260200182805461105490612fb7565b80156110a15780601f10611076576101008083540402835291602001916110a1565b820191906000526020600020905b81548152906001019060200180831161108457829003601f168201915b5050505050905060006110b2611bc4565b90506000815114156110c857819250505061110b565b6000825111156110fd5780826040516020016110e59291906128c7565b6040516020818303038152906040529250505061110b565b61110684611bdb565b925050505b919050565b6000600560008473ffffffffffffffffffffffffffffffffffffffff1673ffffffffffffffffffffffffffffffffffffffff16815260200190815260200160002060008373ffffffffffffffffffffffffffffffffffffffff1673ffffffffffffffffffffffffffffffffffffffff16815260200190815260200160002060009054906101000a900460ff16905092915050565b60007f01ffc9a7000000000000000000000000000000000000000000000000000000007bffffffffffffffffffffffffffffffffffffffffffffffffffffffff1916827bffffffffffffffffffffffffffffffffffffffffffffffffffffffff1916149050919050565b60008073ffffffffffffffffffffffffffffffffffffffff166002600084815260200190815260200160002060009054906101000a900473ffffffffffffffffffffffffffffffffffffffff1673ffffffffffffffffffffffffffffffffffffffff1614159050919050565b600033905090565b816004600083815260200190815260200160002060006101000a81548173ffffffffffffffffffffffffffffffffffffffff021916908373ffffffffffffffffffffffffffffffffffffffff160217905550808273ffffffffffffffffffffffffffffffffffffffff166112f583610841565b73ffffffffffffffffffffffffffffffffffffffff167f8c5be1e5ebec7d5bd14f71427d1e84f3dd0314c0f7b2291e5b200ac8c7c3b92560405160405180910390a45050565b60006113468261120e565b611385576040517f08c379a000000000000000000000000000000000000000000000000000000000815260040161137c90612ba3565b60405180910390fd5b600061139083610841565b90508073ffffffffffffffffffffffffffffffffffffffff168473ffffffffffffffffffffffffffffffffffffffff1614806113ff57508373ffffffffffffffffffffffffffffffffffffffff166113e784610506565b73ffffffffffffffffffffffffffffffffffffffff16145b80611410575061140f8185611110565b5b91505092915050565b8273ffffffffffffffffffffffffffffffffffffffff1661143982610841565b73ffffffffffffffffffffffffffffffffffffffff161461148f576040517f08c379a000000000000000000000000000000000000000000000000000000000815260040161148690612ca3565b60405180910390fd5b600073ffffffffffffffffffffffffffffffffffffffff168273ffffffffffffffffffffffffffffffffffffffff1614156114ff576040517f08c379a00000000000000000000000000000000000000000000000000000000081526004016114f690612b63565b60405180910390fd5b61150a838383611c82565b611515600082611282565b6001600360008573ffffffffffffffffffffffffffffffffffffffff1673ffffffffffffffffffffffffffffffffffffffff16815260200190815260200160002060008282546115659190612ecd565b925050819055506001600360008473ffffffffffffffffffffffffffffffffffffffff1673ffffffffffffffffffffffffffffffffffffffff16815260200190815260200160002060008282546115bc9190612dec565b92505081905550816002600083815260200190815260200160002060006101000a81548173ffffffffffffffffffffffffffffffffffffffff021916908373ffffffffffffffffffffffffffffffffffffffff160217905550808273ffffffffffffffffffffffffffffffffffffffff168473ffffffffffffffffffffffffffffffffffffffff167fddf252ad1be2c89b69c2b068fc378daa952ba7f163c4a11628f55a4df523b3ef60405160405180910390a4505050565b606060008214156116bd576040518060400160405280600181526020017f3000000000000000000000000000000000000000000000000000000000000000815250905061181d565b600082905060005b600082146116ef5780806116d89061301a565b915050600a826116e89190612e42565b91506116c5565b60008167ffffffffffffffff811115611731577f4e487b7100000000000000000000000000000000000000000000000000000000600052604160045260246000fd5b6040519080825280601f01601f1916602001820160405280156117635781602001600182028036833780820191505090505b5090505b600085146118165760018261177c9190612ecd565b9150600a8561178b9190613063565b60306117979190612dec565b60f81b8183815181106117d3577f4e487b7100000000000000000000000000000000000000000000000000000000600052603260045260246000fd5b60200101907effffffffffffffffffffffffffffffffffffffffffffffffffffffffffffff1916908160001a905350600a8561180f9190612e42565b9450611767565b8093505050505b919050565b60008160405160200161183591906128b0565b6040516020818303038152906040528051906020012060001c9050919050565b600081600001549050919050565b6060600082519050600081141561188c5760405180602001604052806000815250915050611a1c565b6000600360028361189d9190612dec565b6118a79190612e42565b60046118b39190612e73565b905060006020826118c49190612dec565b67ffffffffffffffff811115611903577f4e487b7100000000000000000000000000000000000000000000000000000000600052604160045260246000fd5b6040519080825280601f01601f1916602001820160405280156119355781602001600182028036833780820191505090505b50905060006040518060600160405280604081526020016137f5604091399050600181016020830160005b868110156119d95760038101905062ffffff818a015116603f8160121c168401518060081b905060ff603f83600c1c1686015116810190508060081b905060ff603f8360061c1686015116810190508060081b905060ff603f831686015116810190508060e01b90508084526004840193505050611960565b5060038606600181146119f35760028114611a0357611a0e565b613d3d60f01b6002830352611a0e565b603d60f81b60018303525b508484525050819450505050505b919050565b611a3b828260405180602001604052806000815250611c87565b5050565b611a488261120e565b611a87576040517f08c379a0000000000000000000000000000000000000000000000000000000008152600401611a7e90612c23565b60405180910390fd5b80600660008481526020019081526020016000209080519060200190611aae929190612083565b505050565b6001816000016000828254019250508190555050565b611b63838383604051602401611ae193929190612ae5565b6040516020818303038152906040527fe3849f79000000000000000000000000000000000000000000000000000000007bffffffffffffffffffffffffffffffffffffffffffffffffffffffff19166020820180517bffffffffffffffffffffffffffffffffffffffffffffffffffffffff8381831617835250505050611ce2565b505050565b611b73848484611419565b611b7f84848484611d0b565b611bbe576040517f08c379a0000000000000000000000000000000000000000000000000000000008152600401611bb590612b23565b60405180910390fd5b50505050565b606060405180602001604052806000815250905090565b6060611be68261120e565b611c25576040517f08c379a0000000000000000000000000000000000000000000000000000000008152600401611c1c90612cc3565b60405180910390fd5b6000611c2f611bc4565b90506000815111611c4f5760405180602001604052806000815250611c7a565b80611c5984611675565b604051602001611c6a9291906128c7565b6040516020818303038152906040525b915050919050565b505050565b611c918383611ea2565b611c9e6000848484611d0b565b611cdd576040517f08c379a0000000000000000000000000000000000000000000000000000000008152600401611cd490612b23565b60405180910390fd5b505050565b60008151905060006a636f6e736f6c652e6c6f679050602083016000808483855afa5050505050565b6000611d2c8473ffffffffffffffffffffffffffffffffffffffff16612070565b15611e95578373ffffffffffffffffffffffffffffffffffffffff1663150b7a02611d5561127a565b8786866040518563ffffffff1660e01b8152600401611d779493929190612a33565b602060405180830381600087803b158015611d9157600080fd5b505af1925050508015611dc257506040513d601f19601f82011682018060405250810190611dbf91906123c7565b60015b611e45573d8060008114611df2576040519150601f19603f3d011682016040523d82523d6000602084013e611df7565b606091505b50600081511415611e3d576040517f08c379a0000000000000000000000000000000000000000000000000000000008152600401611e3490612b23565b60405180910390fd5b805181602001fd5b63150b7a0260e01b7bffffffffffffffffffffffffffffffffffffffffffffffffffffffff1916817bffffffffffffffffffffffffffffffffffffffffffffffffffffffff191614915050611e9a565b600190505b949350505050565b600073ffffffffffffffffffffffffffffffffffffffff168273ffffffffffffffffffffffffffffffffffffffff161415611f12576040517f08c379a0000000000000000000000000000000000000000000000000000000008152600401611f0990612c43565b60405180910390fd5b611f1b8161120e565b15611f5b576040517f08c379a0000000000000000000000000000000000000000000000000000000008152600401611f5290612b43565b60405180910390fd5b611f6760008383611c82565b6001600360008473ffffffffffffffffffffffffffffffffffffffff1673ffffffffffffffffffffffffffffffffffffffff1681526020019081526020016000206000828254611fb79190612dec565b92505081905550816002600083815260200190815260200160002060006101000a81548173ffffffffffffffffffffffffffffffffffffffff021916908373ffffffffffffffffffffffffffffffffffffffff160217905550808273ffffffffffffffffffffffffffffffffffffffff16600073ffffffffffffffffffffffffffffffffffffffff167fddf252ad1be2c89b69c2b068fc378daa952ba7f163c4a11628f55a4df523b3ef60405160405180910390a45050565b600080823b905060008111915050919050565b82805461208f90612fb7565b90600052602060002090601f0160209004810192826120b157600085556120f8565b82601f106120ca57805160ff19168380011785556120f8565b828001600101855582156120f8579182015b828111156120f75782518255916020019190600101906120dc565b5b5090506121059190612109565b5090565b5b8082111561212257600081600090555060010161210a565b5090565b600061213961213484612d63565b612d3e565b90508281526020810184848401111561215157600080fd5b61215c848285612f75565b509392505050565b60008135905061217381613773565b92915050565b6000813590506121888161378a565b92915050565b60008135905061219d816137a1565b92915050565b6000815190506121b2816137a1565b92915050565b600082601f8301126121c957600080fd5b81356121d9848260208601612126565b91505092915050565b6000813590506121f1816137b8565b92915050565b60006020828403121561220957600080fd5b600061221784828501612164565b91505092915050565b6000806040838503121561223357600080fd5b600061224185828601612164565b925050602061225285828601612164565b9150509250929050565b60008060006060848603121561227157600080fd5b600061227f86828701612164565b935050602061229086828701612164565b92505060406122a1868287016121e2565b9150509250925092565b600080600080608085870312156122c157600080fd5b60006122cf87828801612164565b94505060206122e087828801612164565b93505060406122f1878288016121e2565b925050606085013567ffffffffffffffff81111561230e57600080fd5b61231a878288016121b8565b91505092959194509250565b6000806040838503121561233957600080fd5b600061234785828601612164565b925050602061235885828601612179565b9150509250929050565b6000806040838503121561237557600080fd5b600061238385828601612164565b9250506020612394858286016121e2565b9150509250929050565b6000602082840312156123b057600080fd5b60006123be8482850161218e565b91505092915050565b6000602082840312156123d957600080fd5b60006123e7848285016121a3565b91505092915050565b60006020828403121561240257600080fd5b6000612410848285016121e2565b91505092915050565b61242281612f01565b82525050565b61243181612f13565b82525050565b600061244282612da9565b61244c8185612dbf565b935061245c818560208601612f84565b61246581613150565b840191505092915050565b600061247b82612db4565b6124858185612dd0565b9350612495818560208601612f84565b61249e81613150565b840191505092915050565b60006124b482612db4565b6124be8185612de1565b93506124ce818560208601612f84565b80840191505092915050565b600081546124e781612fb7565b6124f18186612de1565b9450600182166000811461250c576001811461251d57612550565b60ff19831686528186019350612550565b61252685612d94565b60005b8381101561254857815481890152600182019150602081019050612529565b838801955050505b50505092915050565b6000612566603283612dd0565b915061257182613161565b604082019050919050565b6000612589601c83612dd0565b9150612594826131b0565b602082019050919050565b60006125ac600a83612de1565b91506125b7826131d9565b600a82019050919050565b60006125cf602483612dd0565b91506125da82613202565b604082019050919050565b60006125f2601983612dd0565b91506125fd82613251565b602082019050919050565b6000612615600b83612de1565b91506126208261327a565b600b82019050919050565b6000612638602c83612dd0565b9150612643826132a3565b604082019050919050565b600061265b600d83612de1565b9150612666826132f2565b600d82019050919050565b600061267e603883612dd0565b91506126898261331b565b604082019050919050565b60006126a1605683612de1565b91506126ac8261336a565b605682019050919050565b60006126c4602a83612dd0565b91506126cf826133df565b604082019050919050565b60006126e7602983612dd0565b91506126f28261342e565b604082019050919050565b600061270a602e83612dd0565b91506127158261347d565b604082019050919050565b600061272d600283612de1565b9150612738826134cc565b600282019050919050565b6000612750602083612dd0565b915061275b826134f5565b602082019050919050565b6000612773603183612dd0565b915061277e8261351e565b604082019050919050565b6000612796602c83612dd0565b91506127a18261356d565b604082019050919050565b60006127b9602983612dd0565b91506127c4826135bc565b604082019050919050565b60006127dc602f83612dd0565b91506127e78261360b565b604082019050919050565b60006127ff600a83612de1565b915061280a8261365a565b600a82019050919050565b6000612822602183612dd0565b915061282d82613683565b604082019050919050565b6000612845600a83612de1565b9150612850826136d2565b600a82019050919050565b6000612868601d83612de1565b9150612873826136fb565b601d82019050919050565b600061288b603183612dd0565b915061289682613724565b604082019050919050565b6128aa81612f6b565b82525050565b60006128bc82846124a9565b915081905092915050565b60006128d382856124a9565b91506128df82846124a9565b91508190509392505050565b60006128f782866124a9565b915061290382856124a9565b915061290f82846124a9565b9150819050949350505050565b600061292882856124da565b915061293482846124a9565b915061293f8261264e565b91508190509392505050565b60006129568261259f565b915061296282846124a9565b915081905092915050565b600061297882612608565b915061298482846124a9565b915081905092915050565b600061299a826127f2565b91506129a682856124a9565b91506129b182612694565b91506129bd82846124a9565b91506129c882612720565b91508190509392505050565b60006129df82612838565b91506129eb82846124a9565b915081905092915050565b6000612a018261285b565b9150612a0d82846124a9565b915081905092915050565b6000602082019050612a2d6000830184612419565b92915050565b6000608082019050612a486000830187612419565b612a556020830186612419565b612a6260408301856128a1565b8181036060830152612a748184612437565b905095945050505050565b6000604082019050612a946000830185612419565b612aa160208301846128a1565b9392505050565b6000602082019050612abd6000830184612428565b92915050565b60006020820190508181036000830152612add8184612470565b905092915050565b60006060820190508181036000830152612aff8186612470565b9050612b0e60208301856128a1565b612b1b6040830184612419565b949350505050565b60006020820190508181036000830152612b3c81612559565b9050919050565b60006020820190508181036000830152612b5c8161257c565b9050919050565b60006020820190508181036000830152612b7c816125c2565b9050919050565b60006020820190508181036000830152612b9c816125e5565b9050919050565b60006020820190508181036000830152612bbc8161262b565b9050919050565b60006020820190508181036000830152612bdc81612671565b9050919050565b60006020820190508181036000830152612bfc816126b7565b9050919050565b60006020820190508181036000830152612c1c816126da565b9050919050565b60006020820190508181036000830152612c3c816126fd565b9050919050565b60006020820190508181036000830152612c5c81612743565b9050919050565b60006020820190508181036000830152612c7c81612766565b9050919050565b60006020820190508181036000830152612c9c81612789565b9050919050565b60006020820190508181036000830152612cbc816127ac565b9050919050565b60006020820190508181036000830152612cdc816127cf565b9050919050565b60006020820190508181036000830152612cfc81612815565b9050919050565b60006020820190508181036000830152612d1c8161287e565b9050919050565b6000602082019050612d3860008301846128a1565b92915050565b6000612d48612d59565b9050612d548282612fe9565b919050565b6000604051905090565b600067ffffffffffffffff821115612d7e57612d7d613121565b5b612d8782613150565b9050602081019050919050565b60008190508160005260206000209050919050565b600081519050919050565b600081519050919050565b600082825260208201905092915050565b600082825260208201905092915050565b600081905092915050565b6000612df782612f6b565b9150612e0283612f6b565b9250827fffffffffffffffffffffffffffffffffffffffffffffffffffffffffffffffff03821115612e3757612e36613094565b5b828201905092915050565b6000612e4d82612f6b565b9150612e5883612f6b565b925082612e6857612e676130c3565b5b828204905092915050565b6000612e7e82612f6b565b9150612e8983612f6b565b9250817fffffffffffffffffffffffffffffffffffffffffffffffffffffffffffffffff0483118215151615612ec257612ec1613094565b5b828202905092915050565b6000612ed882612f6b565b9150612ee383612f6b565b925082821015612ef657612ef5613094565b5b828203905092915050565b6000612f0c82612f4b565b9050919050565b60008115159050919050565b60007fffffffff0000000000000000000000000000000000000000000000000000000082169050919050565b600073ffffffffffffffffffffffffffffffffffffffff82169050919050565b6000819050919050565b82818337600083830152505050565b60005b83811015612fa2578082015181840152602081019050612f87565b83811115612fb1576000848401525b50505050565b60006002820490506001821680612fcf57607f821691505b60208210811415612fe357612fe26130f2565b5b50919050565b612ff282613150565b810181811067ffffffffffffffff8211171561301157613010613121565b5b80604052505050565b600061302582612f6b565b91507fffffffffffffffffffffffffffffffffffffffffffffffffffffffffffffffff82141561305857613057613094565b5b600182019050919050565b600061306e82612f6b565b915061307983612f6b565b925082613089576130886130c3565b5b828206905092915050565b7f4e487b7100000000000000000000000000000000000000000000000000000000600052601160045260246000fd5b7f4e487b7100000000000000000000000000000000000000000000000000000000600052601260045260246000fd5b7f4e487b7100000000000000000000000000000000000000000000000000000000600052602260045260246000fd5b7f4e487b7100000000000000000000000000000000000000000000000000000000600052604160045260246000fd5b6000601f19601f8301169050919050565b7f4552433732313a207472616e7366657220746f206e6f6e20455243373231526560008201527f63656976657220696d706c656d656e7465720000000000000000000000000000602082015250565b7f4552433732313a20746f6b656e20616c7265616479206d696e74656400000000600082015250565b7f54484952445f574f524400000000000000000000000000000000000000000000600082015250565b7f4552433732313a207472616e7366657220746f20746865207a65726f2061646460008201527f7265737300000000000000000000000000000000000000000000000000000000602082015250565b7f4552433732313a20617070726f766520746f2063616c6c657200000000000000600082015250565b7f5345434f4e445f574f5244000000000000000000000000000000000000000000600082015250565b7f4552433732313a206f70657261746f7220717565727920666f72206e6f6e657860008201527f697374656e7420746f6b656e0000000000000000000000000000000000000000602082015250565b7f3c2f746578743e3c2f7376673e00000000000000000000000000000000000000600082015250565b7f4552433732313a20617070726f76652063616c6c6572206973206e6f74206f7760008201527f6e6572206e6f7220617070726f76656420666f7220616c6c0000000000000000602082015250565b7f222c20226465736372697074696f6e223a202243727970746f20706c616e657460008201527f732e20437574652c2072696768743f222c2022696d616765223a20226461746160208201527f3a696d6167652f7376672b786d6c3b6261736536342c00000000000000000000604082015250565b7f4552433732313a2062616c616e636520717565727920666f7220746865207a6560008201527f726f206164647265737300000000000000000000000000000000000000000000602082015250565b7f4552433732313a206f776e657220717565727920666f72206e6f6e657869737460008201527f656e7420746f6b656e0000000000000000000000000000000000000000000000602082015250565b7f45524337323155524953746f726167653a2055524920736574206f66206e6f6e60008201527f6578697374656e7420746f6b656e000000000000000000000000000000000000602082015250565b7f227d000000000000000000000000000000000000000000000000000000000000600082015250565b7f4552433732313a206d696e7420746f20746865207a65726f2061646472657373600082015250565b7f45524337323155524953746f726167653a2055524920717565727920666f722060008201527f6e6f6e6578697374656e7420746f6b656e000000000000000000000000000000602082015250565b7f4552433732313a20617070726f76656420717565727920666f72206e6f6e657860008201527f697374656e7420746f6b656e0000000000000000000000000000000000000000602082015250565b7f4552433732313a207472616e73666572206f6620746f6b656e2074686174206960008201527f73206e6f74206f776e0000000000000000000000000000000000000000000000602082015250565b7f4552433732314d657461646174613a2055524920717565727920666f72206e6f60008201527f6e6578697374656e7420746f6b656e0000000000000000000000000000000000602082015250565b7f7b226e616d65223a202200000000000000000000000000000000000000000000600082015250565b7f4552433732313a20617070726f76616c20746f2063757272656e74206f776e6560008201527f7200000000000000000000000000000000000000000000000000000000000000602082015250565b7f46495253545f574f524400000000000000000000000000000000000000000000600082015250565b7f646174613a6170706c69636174696f6e2f6a736f6e3b6261736536342c000000600082015250565b7f4552433732313a207472616e736665722063616c6c6572206973206e6f74206f60008201527f776e6572206e6f7220617070726f766564000000000000000000000000000000602082015250565b61377c81612f01565b811461378757600080fd5b50565b61379381612f13565b811461379e57600080fd5b50565b6137aa81612f1f565b81146137b557600080fd5b50565b6137c181612f6b565b81146137cc57600080fd5b5056fe416e204e465420772f20494420257320686173206265656e206d696e74656420746f2025734142434445464748494a4b4c4d4e4f505152535455565758595a6162636465666768696a6b6c6d6e6f707172737475767778797a303132333435363738392b2fa2646970667358221220380defcd0e87381e1ac919876cfb72c1fb6b5ea0dc8cb02acdcae7268f33f79164736f6c634300080400333c73766720786d6c6e733d27687474703a2f2f7777772e77332e6f72672f323030302f73766727207072657365727665417370656374526174696f3d27784d696e594d696e206d656574272076696577426f783d273020302033353020333530273e3c7374796c653e2e62617365207b2066696c6c3a2077686974653b20666f6e742d66616d696c793a2073657269663b20666f6e742d73697a653a20323470783b207d3c2f7374796c653e3c726563742077696474683d273130302527206865696768743d2731303025272066696c6c3d27626c61636b27202f3e3c7465787420783d273530252720793d273530252720636c6173733d27626173652720646f6d696e616e742d626173656c696e653d276d6964646c652720746578742d616e63686f723d276d6964646c65273e",
  "linkReferences": {},
  "deployedLinkReferences": {}
}